:100000000EC01DC01CC033C01AC084C018C03AC086
:1000100017C015C014C013C012C011C010C01124E5
:100020001FBECFE5D2E0DEBFCDBF10E0A0E6B0E05E
:1000300001C01D92AB37B107E1F7CFD02CC2E0CFA2
:100040001F920F920FB60F9211248F939F9384B13A
:1000500095B1909379008093780081E080937A0045
:100060009F918F910F900FBE0F901F9018951F9228
:100070000F920FB60F921124369A0F900FBE0F9069
:100080001F9018951F920F920FB60F9211242F9365
:100090003F934F935F938F939F93AF93BF93EF9350
:1000A000FF9322B7809168009091690010926900D7
:1000B0001092680012BEA0E0B0E0BA2FA92F982FCE
:1000C000882730E040E050E0822B932BA42BB52B07
:1000D000E0916A00E170F0E0EE0FFF1FEE0FFF1FEE
:1000E000E05AFF4F80839183A283B38380916A009B
:1000F0008F5F80936A00FF91EF91BF91AF919F91C5
:100100008F915F914F913F912F910F900FBE0F9064
:100110001F9018951F920F920FB60F9211242F93D4
:100120003F934F935F938F939F93AF93BF93EF93BF
:10013000FF93809168009091690084589E4188F5F2
:100140008091680090916900019690936900809376
:1001500068004091760050917700809174009091F2
:10016000750094FD36C0C09820E030E080917400A6
:1001700090917500840F951F821B930B90937500CF
:1001800080937400FF91EF91BF91AF919F918F91F8
:100190005F914F913F912F910F900FBE0F901F9045
:1001A0001895E0916A00E170F0E0EE0FFF1FEE0F8E
:1001B000FF1FE05AFF4F8FEF9FEFAFEFBFEF80833E
:1001C0009183A283B38380916A008F5F80936A00DA
:1001D000C0CFC09A20E030E1C9CF2F923F924F921A
:1001E0005F926F927F928F929F92AF92BF92CF92C7
:1001F000DF92EF92FF920F931F9387B3897F87BBA4
:10020000B89A469A439A389A84B3866084BB86B17A
:10021000876086B9339A379A369A84EF8EBD8DBD42
:1002200089B7806489BF80B78F6880BF83B78260D9
:1002300083BF89B7826089BF789480917A008823D0
:10024000E1F3F894A0906000B0906100C09062006B
:10025000D0906300E0906400F0906500009166002B
:10026000109167007894609178007091790080E037
:1002700090E02EEC3BE240E050E0B7D0ECE0969509
:10028000879577956795EA95D1F768537F4F8F4F9C
:100290009F4F3B0188249924EA0CFB1C0C1D1D1D5B
:1002A00060E07EE087E297E0A8019701B7D040E0E8
:1002B00050E0621A730A840A950A64015301AA0C79
:1002C000BB1CCC1CDD1CAA0CBB1CCC1CDD1C209058
:1002D0007000309071004090720050907300A092B6
:1002E0007000B0927100C0927200D0927300C4018D
:1002F000B30127ED33E040E050E077D07B018C0183
:1003000080916C0090916D00A0916E00B0916F0093
:10031000E80EF91E0A1F1B1F80916C0090916D0062
:10032000A0916E00B0916F0081509040A040B1400C
:10033000CCF180E090E0A0E0B1E080936C0090937D
:100340006D00A0936E00B0936F00C401B30129E962
:1003500031E140E050E049D06A0D7B1D8C1D9D1DB0
:100360006219730984099509E60EF71E081F191F03
:10037000C801B70120E030E140E050E071D0C90190
:10038000DA01803020E1920720E0A20720E0B207E6
:10039000E4F02FEF3FE03093770020937600109247
:1003A0007A004BCF80916C0090916D00A0916E000F
:1003B000B0916F00B7FD0DC0E0926C00F0926D003F
:1003C00000936E0010936F00C0CFB7FD0BC09C016F
:1003D000E2CF10926C0010926D0010926E0010929D
:1003E0006F00B3CF20E030E0D6CFFF27EE27BB274A
:1003F000AA2760FF04C0A20FB31FE41FF51F220F3E
:10040000331F441F551F969587957795679589F7F4
:100410000097760771F7CF01BD010895A1E21A2E6A
:10042000AA1BBB1BFD010DC0AA1FBB1FEE1FFF1F98
:10043000A217B307E407F50720F0A21BB30BE40BE8
:10044000F50B661F771F881F991F1A9469F760952F
:100450007095809590959B01AC01BD01CF010895E9
:1004600097FB092E05260ED057FD04D0D7DF0AD002
:10047000001C38F450954095309521953F4F4F4FD3
:100480005F4F0895F6F790958095709561957F4F31
:0A0490008F4F9F4F0895F894FFCF9F
:00000001FF
